:030000000209AD45
:0C09AD00787FE4F6D8FD75810C0208008C
:100969004552523A00424D503238302049443A00FB
:03097900307800D3
:10083900E4F5A0C282C280C2817F38FE12097C120F
:1008490008F17F067E0012097C1208F17F0C7E00F8
:1008590012097C1208F17F017E0012097C1208F14D
:070869007F807E0002097C84
:0408F1007F047E0002
:1008F500E4FDFCC3ED9FEC9E5015E4FBFA0BBB0039
:0F090500010ABA01F8BB7EF50DBD00010C80E4BC
:0109140022C0
:10097C00C280C281D2828FA07F0A7E001208F5C28B
:02098C008222C5
:10098E00D280C281D2828FA07F0A7E001208F5C269
:02099E008222B3
:1008CC008B0A8A0B890CAB0AAA0BA90C1209506073
:1008DC0013050CE50C7002050B14F9120950FF12EC
:0508EC00098E80E222EC
:02087000AE07D1
:10087200EEC4540FFDEE540FF9EDC3940A50047FF9
:100882003080027F37EF2DFDE9C3940A50047F3098
:1008920080027F37EF29F9AF0512098EAF010209F5
:0108A2008EC7
:0309D1005393F746
:0609D400E59330E3FB2275
:10091500859409E5096F60177F017E0012097C7BCC
:0F092500FF7A0979691208CCAF0912087080FEB9
:0109340022A0
:0D09A0004393201209D11209155393DF2251
:0C09B9004393105393F7E59320E4FB22D6
:0C09C500AE058F951209D1AF060209158E
:10093500AE05EF600543930480035393FB5393F790
:0B0945001209D4AF06120915AF95226D
:1008A3007F081209A07D187FEC1209C57D287FD02F
:1008B3001209C57F101209A07D407FED1209C57D85
:0908C30058E4FF1209350209B9DD
:100800001208397593447F647E001208F51208A31C
:100810008F087F807E0012097C7BFF7A09796E1237
:1008200008CC7FC07E0012097C7BFF7A097979129F
:0908300008CCAF0812087080FE2C
:10095000BB010689828A83E0225002E722BBFE02A5
:09096000E32289828A83E49322D8
:00000001FF
