:030000000208B142
:0C08B100787FE4F6D8FD7581200208F87D
:10099900535343533A00535441525400493243206C
:1009A9004F4B00424D502057414B4500424D50207E
:1009B9005245414400424D502049443A0052544363
:1009C90020494E4954005254432052454144005352
:0C09D90045433A0052554E4E494E47002F
:040BBF00C101C100AF
:1009E500E4F5A0C282C280C2817F38FE120B0B12D1
:1009F5000A957F067E00120B0B120A957F0C7E006E
:100A0500120B0B120A95120B07120A957F807E00B6
:030A1500020B0BC6
:040A95007F047E005C
:100A9900E4FDFCC3ED9FEC9E5015E4FBFA0BBB0093
:0F0AA900010ABA01F8BB7EF50DBD00010C80E417
:010AB800221B
:060B05008F087F017E0055
:100B0B00C280C281D2828FA07F0A7E00120A99C254
:020B1B00822234
:100B4400D280C281D2828FA07F0A7E00120A99C20B
:020B54008222FB
:100A4B008B0C8A0D890EAB0CAA0DA90E120AEC6049
:100A5B0013050EE50E7002050D14F9120AECFF12C8
:050A6B000B4480E222B3
:100B5600758920758DCC759850D28ED2ACD2AF22C5
:080BB1008F993001FDC2012201
:100A70008B0F8A108911AB0FAA10A911120AEC6012
:100A8000130511E5117002051014F9120AECFF129A
:050A90000BB180E22221
:090B9E00E4FF3000FDC200AF9934
:010BA700222B
:03002300020B6667
:100B6600309905C299D20132309804C298D2003227
:100AD3008B098A0A890B120B07AB09AA0AA90B1205
:090AE3000A4B7FE87E03020A9928
:020A1800AE0727
:100A1A00EEC4540FFDEE540FF9EDC3940A50047F4F
:100A2A003080027F37EF2DFDE9C3940A50047F30EE
:100A3A0080027F37EF29F9AF05120B44AF01020B91
:010A4A004467
:100B3100120B077BFF7A097999120A4BAF94120ABB
:030B41001880FE1B
:04093D008F098D0A87
:10094100120B85E50925E0FF120B29E59464186077
:1009510003120B31AF0A120B29E5946428600312CC
:100961000B31120B85E59464106003120B31E5091C
:1009710025E04401FF120B29E59464406003120B4A
:1009810031120BC8120BA88F0BE594645860031247
:070991000B31120B92AF0BBA
:01099800223C
:100800001209E5120B567BFF7A09799F120AD375FC
:1008100093447FC87E00120A997BFF7A0979A5125A
:100820000AD37BFF7A0979AC120AD37B277DF47F48
:1008300076120B767F647E00120A997BFF7A097923
:10084000B5120AD37DD07F7612093D120B057BFFCE
:100850007A0979BE120A4BAF08120A187FD07E07B8
:10086000120A997BFF7A0979C6120AD3E4FBFD7F4D
:1008700068120B767BFF7A0979CF120AD3E4FD7FE9
:100880006812093D120B057BFF7A0979D8120A4BD1
:10089000AF08120A187FD07E07120A99120B077B45
:1008A000FF7A0979DD120A4B7FE87E03120A9980EC
:0108B000EB5C
:060BB900E59330E3FB228E
:0D0B85004393205393F7120BB95393DF22D3
:0C0B92004393105393F7E59320E4FB22FB
:0C0B1D00120B85EE25E0FF120B29AF053E
:080B29008F955393F7020BB9FD
:090BA8005393F7120BB9AF95222B
:040BC4004393042231
:040BC8005393FB2226
:020AB900AE0786
:100ABB00120B1D120B85EE25E04401FF120B2912C0
:080ACB000BC8120BA8020B92EC
:0F0B7600AE07AC03120B1DAF04120B29020B923A
:1008BD00020800E493A3F8E493A34003F68001F249
:1008CD0008DFF48029E493A3F85407240CC8C3333C
:1008DD00C4540F4420C8834004F456800146F6DF0B
:1008ED00E4800B0102040810204080900BBFE47ED1
:1008FD00019360BCA3FF543F30E509541FFEE49300
:10090D00A360010ECF54C025E060A840B8E493A3C6
:10091D00FAE493A3F8E493A3C8C582C8CAC583CAF1
:10092D00F0A3C8C582C8CAC583CADFE9DEE780BEA9
:010BC3000031
:100AEC00BB010689828A83E0225002E722BBFE0208
:090AFC00E32289828A83E493223B
:00000001FF
