:03000000020D8866
:0C0D8800787FE4F6D8FD758149020DCF9C
:100E8B00456E7465722074696D65202848483A4D2B
:100E9B004D3A5353293A20000D0A0054696D653AB7
:100EAB00200054656D703A200020430020430D0A4A
:010EBB000036
:04106900C101C10000
:100E5400E4F5A0C282C280C2817F38FE120FDC1288
:100E64000F0C7F067E00120FDC120F0C7F0C7E002D
:100E7400120FDC120F0C7F017E00120FDC120F0C1C
:070E84007F807E00020FDCFD
:040F0C007F047E00E0
:100F1000E4FDFCC3ED9FEC9E5015E4FBFA0BBB0017
:0F0F2000010ABA01F8BB7EF50DBD00010C80E49B
:010F2F00229F
:100FDC00C280C281D2828FA07F0A7E00120F10C203
:020FEC0082225F
:100FEE00D280C281D2828FA07F0A7E00120F10C2E1
:020FFE0082224D
:100EE7008B398A3A893BAB39AA3AA93B120A38604F
:100EF70013053BE53B7002053A14F9120A38FF1255
:050F07000FEE80E22264
:10100000758920758DCC759850D28ED2ACD2AF2216
:08105B008F993001FDC2012252
:060EBC007BFF7A0E79A312
:100EC2008B478A488949AB47AA48A949120A386020
:100ED200130549E5497002054814F9120A38FF1250
:050EE200105B80E2221C
:09104800E4FF3000FDC200AF9985
:01105100227C
:03002300021010B8
:10101000309905C299D20132309804C298D2003278
:100FB100AD07EDC4540F75F00AA4FFED540F7C008A
:070FC1002FFFEC35F0FE22CA
:100F78008E3D8F3E7C007D0A120A63EFC454F0FB5D
:0F0F8800AE3DAF3E7C007D0A120A63EB4DFF22A7
:100F3000AB07AA067C007D0A120A63EF2430FF1279
:100F4000105BAE02AF037C007D0A120A63ED243011
:040F5000FF02105B31
:100F54008E398F3A7C007D0A120A63EF2430FF1227
:100F64000FEEAE39AF3A7C007D0A120A63ED2430ED
:040F7400FF020FEE7B
:080B83008F3C8E3B8D3A8C394A
:100B8B00AE08AF09E4FCFD7801120B1BC004C005D5
:100B9B00C006C007AF3CAE3BAD3AAC397803120B85
:100BAB0007D003D002D001D000C3EF9BFBEE9AFA23
:100BBB00ED99F9EC98F8AE0AAF0BEE3395E0FDFC2E
:100BCB00120AB8780B120B078F408E3F8D3E8C3D6F
:100BDB00AE08AF09E4FCFDC004C005C006C007AFFA
:100BEB003CAE3BAD3AAC397804120B07D003D002C4
:100BFB00D001D000C3EF9BFFEE9AFEED99FDEC9870
:100C0B00FCC004C005C006C007AE08AF09E4FCFD7C
:100C1B00C004C005C006C007AF3CAE3BAD3AAC3913
:100C2B007804120B07D003D002D001D000C3EF9B86
:100C3B00FFEE9AFEED99FDEC98FCD003D002D001AB
:100C4B00D000120AB8780C120B07A804A905AA0643
:100C5B00AB07AE0CAF0DEE3395E0FDFC120AB87886
:100C6B000E120B078F448E438D428C41E540254479
:100C7B00F548E53F3543F547E53E3542F546E53D5D
:100C8B003541F545E47F05FEFDFCAB48AA47A94677
:100C9B00A845120AB8EF2480FFE43EFEE43DFDE4D4
:070CAB003CFC7808020B0776
:060CB2008B398A3A893BF0
:100CB8007BFF7A0E798B120EC2121048AE07121003
:100CC800488F42121048AD071210488F431210483F
:100CD8008F44121048AD071210488F451210488FE4
:100CE80046120EBCAF06EF3395E0FEEF24D0FFEEC0
:100CF80034FFFE7C007D0A120A51AD42ED3395E0C7
:100D0800FCED24D0FDEC34FFCD2FFFED3EAB39AA2E
:100D18003AA93B8FF0120A99AF43EF3395E0FEEF03
:100D280024D0FFEE34FFFE7C007D0A120A51AD4448
:100D3800ED3395E0FCED24D0FDEC34FFCD2FFFED35
:100D48003EAB3CAA3DA93E8FF0120A99AF45EF335E
:100D580095E0FEEF24D0FFEE34FFFE7C007D0A1202
:100D68000A51AD46ED3395E0FCED24D0FDEC34FF9F
:100D7800CD2FFFED3EAB3FAA40A9418FF0020A9963
:080E14008E398F3A8D828C8328
:100E1C00AF03AE02120F78EF547FFAAF82AE83129B
:100E2C000F788F3BAF3AAE39120F788F3CAB02E4A0
:100E3C00FD7F68121020AB3B7D017F68121020AB48
:080E4C003C7D027F68021020CA
:10080000120E541210007593447FC87E00120F1010
:100810007B277DF47F761210207F647E00120F10FC
:100820007D897F76120F97EF7F00FEC007C0067D9F
:10083000887F76120F97EFFDD0E0F508D0E04DF5F8
:10084000097D8B7F76120F97EF7F00FEC007C006F1
:100850007D8A7F76120F97EFFDD0E0F50AD0E04D4C
:10086000F50B7D8D7F76120F97EF7F00FEC007C0DE
:10087000067D8C7F76120F97EFFDD0E0F50CD0E06F
:100880004DF50D753C00753D00753E35753F0075A5
:1008900040007541377B007A007933120CB2AB38D7
:1008A000AA37AD36AC35AF34AE33120E147DFA7FB5
:1008B00076120F978F2A7DFB7F76120F978F2B7DF5
:1008C000FC7F76120F978F2CAF2BE4FCFDFE780493
:1008D000120B1BC004C005C006C007AF2AE4FCFD14
:1008E000FE780C120B1BD003D002D001D000EF4BCE
:1008F000FFEE4AFEED49FDEC48FCA804A905AA0656
:10090000AB07E52CC4540FFFEB4FF530EAF52FE9A8
:10091000F52EE8F52DAF30AE2FAD2EFC120B838EE9
:10092000318F32E4FD7F68120F978F217D017F6840
:10093000120F978F227D027F68120F978F2353210A
:100940007F53233FAF21120FB18E248F25AF221288
:100950000FB18E268F27AF23120FB18E288F297FDC
:10096000807E00120FDC7BFF7A0E79A6120EE7AFB5
:1009700029AE28120F547F3A120FEEAF27AE26127F
:100980000F547F3A120FEEAF25AE24120F547FC0E2
:100990007E00120FDC7BFF7A0E79AD120EE7AE31CE
:1009A000AF327C007D64120A63120F547F2E120F47
:1009B000EEAE31AF327C007D64120A63AE04AF0547
:1009C000120F547BFF7A0E79B4120EE77BFF7A0E7A
:1009D00079A6120EC2AF29AE28120F307F3A12103C
:1009E0005BAF27AE26120F307F3A12105BAF25AEF9
:1009F00024120F30120EBC7BFF7A0E79AD120EC29C
:100A0000AE31AF327C007D64120A63120F307F2E4C
:100A100012105BAE31AF327C007D64120A63AE040B
:100A2000AF05120F307BFF7A0E79B7120EC27FE846
:080A30007E03120F100208AD55
:06106300E59330E3FB22DF
:0D102F004393205393F71210635393DF2275
:0C103C004393105393F7E59320E4FB224C
:0C0FC80012102FEE25E0FF120FD4AF0531
:080FD4008F955393F70210639F
:091052005393F7121063AF9522CD
:04106E004393042282
:041072005393FB2277
:020F9700AE07A3
:100F9900120FC812102FEE25E04401FF120FD412D0
:080FA900107212105202103CFC
:0F102000AE07AC03120FC8AF04120FD402103C7E
:100D9400020800E493A3F8E493A34003F68001F26D
:100DA40008DFF48029E493A3F85407240CC8C33360
:100DB400C4540F4420C8834004F456800146F6DF2F
:100DC400E4800B0102040810204080901069E47E46
:100DD400019360BCA3FF543F30E509541FFEE49324
:100DE400A360010ECF54C025E060A840B8E493A3EB
:100DF400FAE493A3F8E493A3C8C582C8CAC583CA16
:100E0400F0A3C8C582C8CAC583CADFE9DEE780BECD
:01106D000082
:100A3800BB010689828A83E0225002E722BBFE02BC
:090A4800E32289828A83E49322EF
:100A5100EF8DF0A4A8F0CF8CF0A428CE8DF0A42EB9
:020A6100FE2273
:100A6300C2D5EC30E709B2D5E4C39DFDE49CFCEEAE
:100A730030E715B2D5E4C39FFFE49EFE120B2EC3ED
:100A8300E49DFDE49CFC8003120B2E30D507C3E4E8
:060A93009FFFE49EFE221D
:100A9900BB010A89828A83F0E5F0A3F0225006F7A8
:0F0AA90009A7F01922BBFE06F3E5F009F31922A5
:100AB800E88FF0A4CC8BF0A42CFCE98EF0A42CFCDD
:100AC8008AF0EDA42CFCEA8EF0A4CDA8F08BF0A45B
:100AD8002DCC3825F0FDE98FF0A42CCD35F0FCEBBA
:100AE8008EF0A4FEA9F0EB8FF0A4CFC5F02ECD397F
:0F0AF800FEE43CFCEAA42DCE35F0FDE43CFC22EC
:100B0700E86010ECA2E713FCED13FDEE13FEEF1304
:040B1700FFD8F022F1
:100B1B00E8600FEFC333FFEE33FEED33FDEC33FC38
:030B2B00D8F122DC
:100B2E00BC000BBE0029EF8DF084FFADF022E4CCAB
:100B3E00F875F008EF2FFFEE33FEEC33FCEE9DEC74
:100B4E00984005FCEE9DFE0FD5F0E9E4CEFD22EDBA
:100B5E00F8F5F0EE8420D21CFEADF075F008EF2F04
:100B6E00FFED33FD4007985006D5F0F222C398FDF5
:050B7E000FD5F0EA2292
:00000001FF
