:03000000020D25C9
:0C0D2500787FE4F6D8FD758121020A49B0
:060D4F00E59330E3FB22F6
:0D0D18004393205393F7120D4F5393DF22A6
:0C0D31004393105393F7E59320E4FB225A
:0C0CD100120D18EE25E0FF120CDDAF053F
:080CDD008F955393F7020D4FB0
:090D3D005393F7120D4FAF9522FC
:040D5500439304229E
:040D59005393FB2293
:020CB700AE0786
:100CB900120CD1120D18EE25E04401FF120CDD12C1
:080CC9000D59120D3D020D3121
:0F0D0900AE07AC03120CD1AF04120CDD020D319A
:090D460054656D703A0020430071
:100C3700E4F5A0C282C280C2817F38FE120CE512A1
:100C47000C937F067E00120CE5120C937F0C7E003E
:100C5700120CE5120C937F017E00120CE5120C9327
:070C67007F807E00020CE516
:040C93007F047E005C
:100C9700E4FDFCC3ED9FEC9E5015E4FBFA0BBB0093
:0F0CA700010ABA01F8BB7EF50DBD00010C80E417
:010CB600221B
:100CE500C280C281D2828FA07F0A7E00120C97C279
:020CF500822259
:100CF700D280C281D2828FA07F0A7E00120C97C257
:020D0700822246
:100C6E008B0C8A0D890EAB0CAA0DA90E12092F60E2
:100C7E0013050EE50E7002050D14F912092FFF1261
:050C8E000CF780E222DA
:040ADB008E0C8F0DE1
:100ADF00E4F514F515E50D450C70057F30020CF7A4
:100AEF00C3E50C6480948050107F2D120CF7C3E483
:100AFF00950DF50DE4950CF50CD3E50D9400E50C73
:100B0F0064809480402FAE0CAF0D7C007D0A1209DB
:100B1F0048ED2430FF740E2515F8A607AE0CAF0D67
:100B2F007C007D0A1209488E0C8F0D0515E5157096
:100B3F00C8051480C4D3E5159400E514648094802F
:100B4F004014E515151570021514740E2515F8E6E9
:060B5F00FF120CF780DF1D
:010B6500226D
:100BE000120D187FEC120CDD7F88120CDD120D182F
:100BF0007FED120CDD120D55120D3D8F0C120D55AF
:100C0000120D3DEFF51CE50CF51D120D55120D3DB5
:100C10008F0C120D55120D3DEFF51EE50CF51F1250
:100C20000D55120D3D8F0C120D59120D3DEFF52093
:070C3000E50CF521020D3176
:100B6600120D187FEC120CDD7FFA120CDD120D1837
:100B76007FED120CDD120D55120D3D8F0C120D5529
:100B8600120D3D8F0D120D59120D3D8F0E120D31A6
:100B9600AF0DE4FCFDFE78041209E1C004C005C0F7
:100BA60006C007AF0CE4FCFDFE780C1209E1D00389
:100BB600D002D001D000EF4BFFEE4AFEED49FDEC2E
:100BC60048FCA804A905AA06AB07E50EC4540FFF06
:090BD600EB4FFFEAFEE9FDE8FC2B
:010BDF0022F3
:080800008F0F8E0E8D0D8C0C84
:10080800AE1CAF1DE4FCFD78011209E1C004C0056F
:10081800C006C007AF0FAE0EAD0DAC0C78031209C1
:10082800CDD003D002D001D000C3EF9BFBEE9AFAE3
:10083800ED99F9EC98F8AE1EAF1FEE3395E0FDFC8C
:1008480012097E780B1209CD8F138E128D118C1020
:10085800AE1CAF1DE4FCFDC004C005C006C007AF58
:100868000FAE0EAD0DAC0C78041209CDD003D0023A
:10087800D001D000C3EF9BFFEE9AFEED99FDEC98F6
:10088800FCC004C005C006C007AE1CAF1DE4FCFDDB
:10089800C004C005C006C007AF0FAE0EAD0DAC0C4E
:1008A80078041209CDD003D002D001D000C3EF9B49
:1008B800FFEE9AFEED99FDEC98FCD003D002D00132
:1008C800D00012097E780C1209CDA804A905AA0641
:1008D800AB07AE20AF21EE3395E0FDFC12097E7820
:1008E8000E1209CD8F178E168D158C14E51325174A
:1008F800F51BE5123516F51AE5113515F519E5104C
:100908003514F518E47F05FEFDFCAB1BAA1AA919DE
:10091800A81812097EEF2480FFE43EFEE43DFDE4C2
:070928003CFC78080209CD38
:100A4900120C377593447F647E00120C977B277DC7
:100A5900F47F76120D097F647E00120C97120BE069
:100A6900120B66120800AB07AA067C007D64120906
:100A7900488E088F09AE02AF037C007D64120948D5
:100A89008C0A8D0B7F807E00120CE57BFF7A0D7935
:100A990046120C6E7FC07E00120CE5AF09AE08123B
:100AA9000ADB7F2E120CF7C3E50B940AE50A648072
:100AB900948050057F30120CF7AF0BAE0A120ADB97
:100AC9007BFF7A0D794C120C6E7FF47E01120C9724
:020AD900808E0D
:10092F00BB010689828A83E0225002E722BBFE02C6
:09093F00E32289828A83E49322F9
:10094800C2D5EC30E709B2D5E4C39DFDE49CFCEECA
:1009580030E715B2D5E4C39FFFE49EFE1209F4C345
:10096800E49DFDE49CFC80031209F430D507C3E440
:060978009FFFE49EFE2239
:10097E00E88FF0A4CC8BF0A42CFCE98EF0A42CFC18
:10098E008AF0EDA42CFCEA8EF0A4CDA8F08BF0A496
:10099E002DCC3825F0FDE98FF0A42CCD35F0FCEBF5
:1009AE008EF0A4FEA9F0EB8FF0A4CFC5F02ECD39BA
:0F09BE00FEE43CFCEAA42DCE35F0FDE43CFC2227
:1009CD00E86010ECA2E713FCED13FDEE13FEEF1340
:0409DD00FFD8F0222D
:1009E100E8600FEFC333FFEE33FEED33FDEC33FC74
:0309F100D8F12218
:1009F400BC000BBE0029EF8DF084FFADF022E4CCE7
:100A0400F875F008EF2FFFEE33FEEC33FCEE9DECAF
:100A1400984005FCEE9DFE0FD5F0E9E4CEFD22EDF5
:100A2400F8F5F0EE8420D21CFEADF075F008EF2F3F
:100A3400FFED33FD4007985006D5F0F222C398FD30
:050A44000FD5F0EA22CD
:00000001FF
